:020000040800F2
:1000000000200020B9000008FD13000811140008AA
:1000100000000000000000000000000000000000E0
:10002000000000000000000000000000FD130008B8
:100030000000000000000000FD130008FD13000890
:10004000FD130008FD130008FD130008FD13000850
:10005000FD130008FD130008FD130008FD13000840
:1000600000000000FD130008FD130008FD13000848
:10007000FD130008FD13000800000000FD13000838
:1000800000000000FD130008000000000000000058
:10009000FD00000800000000FD130008FD1300082B
:1000A000FD130008FD130008FD1300088916000861
:1000B0006D230008FD13000801F01CF901F0DEF8C3
:1000C000E1235B02180001F037FA62B6C04600F087
:1000D00009FA024B180001F09FFBFEE7509600085A
:1000E00080B500AFA023DB055A69A023DB05802182
:1000F00049004A405A61C046BD4680BD80B500AF48
:10010000054B1A69044B01218A431A61FFF7E8FF86
:10011000C046BD4680BDC0460008014080B500AF66
:10012000474BDA6A464B01210A43DA62A023DB051A
:100130001B68032293431A00A023DB0501210A4315
:100140001A60A023DB055A68A023DB0501218A433E
:100150005A60A023DB051B680C2293431A00A023DE
:10016000DB0504210A431A60A023DB055A68A0239B
:10017000DB0502218A435A60A023DB051B6830227D
:1001800093431A00A023DB0510210A431A60A02321
:10019000DB055A68A023DB0504218A435A60A023AB
:1001A000DB051B68C02293431A00A023DB05402116
:1001B0000A431A60A023DB055A68A023DB05082147
:1001C0008A435A60A023DB051B681E4A1A40A023FD
:1001D000DB05802149000A431A60A023DB055A6829
:1001E000A023DB0510218A435A60A023DB051B688E
:1001F000154A1A40A023DB058021C9000A431A6072
:10020000A023DB055A68A023DB0520218A435A601E
:100210000B4BDA6A0A4B02210A43DA62A023DB05A0
:100220001A68A023DB05C02109020A431A60074BA4
:100230001A68064B03210A431A60C046BD4680BDBA
:1002400000100240FFFCFFFFFFF3FFFF000400501F
:1002500080B500AF204BDA6A1F4B02210A43DA62F5
:100260001E4B1A681D4B1E490A401A601B4BDA6868
:100270001A4B1B490A40DA60184BDA68174B802189
:10028000C9000A43DA60154B1A68144BC0218A432F
:100290001A60124BDA68114BC0218A43DA600F4BA7
:1002A000DA680E4B40210A43DA600C4B1A680B4B9C
:1002B0000C490A401A60094BDA68084B09490A40A0
:1002C000DA60064BDA68054B802149000A43DA60A0
:1002D000C046BD4680BDC04600100240000400502C
:1002E000FFF3FFFFFFFCFFFF80B500AFA023DB059E
:1002F000012252429A600E4BDA6A0D4B01210A43E9
:10030000DA62A023DB051B680A4A1A40A023DB053A
:100310008021C9040A431A60A023DB055A69A0237F
:10032000DB05802189010A435A61C046BD4680BD74
:1003300000100240FFFFFFF380B500AF1B4BDA6AED
:100340001A4B01210A43DA62A023DB051B68184A15
:100350001A40A023DB05802149020A431A60134B8F
:100360005A6B124B04210A435A63124B1A68114B01
:10037000802149030A431A600F4B1A680E4B102163
:100380000A431A600C4B1A680B4B01210A431A608E
:10039000094BDA68084B01210A43DA6062B6C046AD
:1003A000054B0022DA62C046BD4680BD0010024007
:1003B000FFFFFCFF00E100E00008014080B500AF56
:1003C0000A4B0B4A5A60094B00229A60074B0522E0
:1003D0001A60C046054B1A6880235B021340F9D0AF
:1003E000024B00221A60C046BD4680BD10E000E00E
:1003F000FF7C000080B582B000AF786001E0FFF7BD
:10040000DDFF7B685A1E7A60002BF8D1C046C046DB
:10041000BD4602B080BD90B58DB000AF78607A68FF
:10042000174B1100180004F0ABFBA023DB055A6941
:10043000A023DB0513490A405A610A2001F0D0FCD1
:100440007B68180002F05AF808243B19272118008D
:1004500002F08EF8A023DB055A69A023DB0580217A
:1004600089010A435A610A2001F0BAFC3A19064B85
:100470001100180004F084FBC046BD460DB090BDCD
:1004800098930008FFDFFFFFA493000880B500AF3A
:10049000A023DB055A69A023DB0510490A405A61F5
:1004A0000A2001F09DFC0E4B180002F027F80A20EC
:1004B00001F096FCA023DB055A69A023DB0580210F
:1004C00089010A435A6101E002F045F802F096F80A
:1004D000031EF9DCC046C046BD4680BDFFDFFFFFFE
:1004E000B4930008F0B5C94CA54400AF0023E7223F
:1004F0009200BA1813600023DB229200BA1813602E
:100500006423DA229200BA1813600023E6229200D4
:10051000BA1813600023E5229200BA181360002372
:10052000E4229200BA1813600023E3229200BA1862
:1005300013600023E2229200BA1813600023E12224
:100540009200BA1813600023E0229200BA181360D8
:100550000023D924A4003A1913600023D822920062
:10056000BA1813600023DE229200BA181360002329
:10057000DD229200BA18136000233B600023DC22C6
:100580009200BA181360FFF7D7FEFFF7C7FD01F01E
:1005900023FA01F058FDFFF75BFEFFF7A5FE962357
:1005A0009B01180001F03CFEFA235B001800FFF7E6
:1005B00021FF974B180004F0E3FA964B180004F063
:1005C0006BFBFA239B00180001F00AFC924B180009
:1005D00004F062FBFFF75AFF904B1800FFF71BFF78
:1005E0008F4B1800FFF717FF8E4B1800FFF713FF14
:1005F0008D4B1800FFF70FFF8C4B1800FFF70BFF18
:100600008B4B1800FFF707FF8A4B1800FFF703FF1B
:10061000894B1800FFF7FFFE00233A1913601DE015
:10062000864B01220121180001F032FD844B01228A
:100630000221180001F02CFD824B1B69202213407F
:100640000CD1322001F0CCFB7E4B1B6920221340E1
:1006500004D10123E6229200BA181360E6239B001E
:10066000FB181B68002BDBD041E1774B01220121F5
:10067000180001F00DFD754B01220221180001F058
:1006800007FD704B1B69202213400CD1322001F072
:10069000A7FB6C4B1B692022134004D10123E522E8
:1006A0009200BA181360674B1B69082213401CD1D3
:1006B000322001F095FB634B1B690822134014D1D3
:1006C00001235B42E5229200BA1813600123E42261
:1006D0009200BA1813600223E6229200BA1813603F
:1006E0000023E3229200BA181360E5239B00FB1855
:1006F0001B68002BB9D03AE0534B012201211800AE
:1007000001F0C6FC524B01220221180001F0C0FC8E
:100710004C4B1B69202213400CD1322001F060FBAE
:10072000484B1B692022134004D10223E52292008A
:10073000BA181360434B1B690822134017D13220AB
:1007400001F04EFB3F4B1B69082213400FD10123E0
:100750005B42E5229200BA1813600223E422920061
:10076000BA1813600223E6229200BA181360E52338
:100770009B00FB181B68012BBED03FE0324B0122CF
:100780000121180001F084FC324B012202211800E3
:1007900001F07EFC2B4B1B69202213400CD1322030
:1007A00001F01EFB274B1B692022134004D10323B9
:1007B000E5229200BA181360224B1B6908221340ED
:1007C0001CD1322001F00CFB1E4B1B690822134088
:1007D00014D101235B42E5229200BA18136003236F
:1007E000E4229200BA1813600223E6229200BA189B
:1007F00013600023E1229200BA181360E5239B00E6
:10080000FB181B68022BB9D06BE0C0465CFCFFFFF5
:10081000C4930008D0930008049400081C940008B6
:100820002894000834940008409400084C94000870
:10083000589400086494000870940008809400089C
:100840009494000800040050A8940008BC94000888
:10085000D0940008E4940008D64B0122012118002E
:1008600001F016FCD44B01220221180001F010FC0B
:10087000D24B1B69202213400CD1322001F0B0FA78
:10088000CE4B1B692022134004D10023E5229200A5
:10089000BA181360C94B1B690822134021D13220BA
:1008A00001F09EFAC54B1B690822134019D10123A0
:1008B0005B42E5229200BA1813600423E4229200FE
:1008C000BA1813600223E6229200BA1813600023BC
:1008D000E1229200BA1813600123E0229200BA18B4
:1008E0001360E5239B00FB181B68032BB4D0E623A1
:1008F0009B00FB181B68012B00D1F6E698E1002352
:100900007B60AE4B1B69102213400CD1322001F0EA
:1009100067FAAA4B1B691022134004D10123E3227A
:100920009200BA181360A54B1B69202213401BD1FB
:10093000322001F055FAA14B1B692022134013D13C
:100940000023E4229200BA1813600123E6229200E9
:10095000BA1813600023E5229200BA18136003232B
:10096000E3229200BA181360E3239B00FB181B6874
:10097000002B0CD1924B01220121180001F088FBC1
:10098000904B01220221180001F082FB50E1E32488
:10099000A4003B191B68012B2BD18B4B0122012199
:1009A000180001F075FBC82001F01AFA874B0122EC
:1009B0000121180001F06CFB844B01220221180078
:1009C00001F066FB14235B421422524280491C252D
:1009D000781904F099F9212001F0AEFD322001F0E0
:1009E000FFF97B19180001F089FD02233A19136001
:1009F0001EE1E3239B00FB181B68022B00D017E1CC
:100A0000DE229200BB181B68142B1DDCBB181A6871
:100A1000704908243B19180004F076F93B190122AB
:100A20000121180001F034FBDD239B00FB181A683C
:100A300069493B19180004F067F93B1901220221AA
:100A4000180001F025FB05E0644B0122012118008C
:100A500001F01EFB402001F06FFD642001F0C0F9A1
:100A60000023E7229200BA18136001F0C7FD0300CB
:100A7000052B0EDCE7229200BB181B680133B91866
:100A80000B60BB181B681E2B05DC642001F078F995
:100A9000EBE7C04600E0C04601F0B0FD0300052BC7
:100AA00042DD4F4A1C243B191100180001F060FD83
:100AB0003B19180004F0E6F90300062B26D13A1979
:100AC000484B1100180004F05BF83A1D46493B19E9
:100AD000180004F039F97B68DF229200BA18126816
:100AE0009A4206DADE229200BB181B680133BA185C
:100AF00013607B68DF229200BA1813607B68DD22E6
:100B00009200BA1813601FE001F025FD01F076FD98
:100B1000031EF9D11C23FA18344B1100180004F0FD
:100B20002FF811E001F017FD01F068FD031EF9D167
:100B30001C23FA182E4B1100180004F021F8002392
:100B4000DF229200BA1813607B682A4A94466344F5
:100B5000CF229200B9180B60BB181B68264A93423B
:100B600004DD264BFA22D201DA6261E0CF2189004E
:100B70007B181B68204A934209DC7B181A68C8233B
:100B80009B009A4203DD1D4B1D4ADA6250E0CF21E3
:100B900089007B181A68C8239B009A4232DC7B18B4
:100BA0001A68FA235B009A422CDD144BFA22920158
:100BB000DA623DE0A8940008F894000800040050B0
:100BC0000C95000820950008349500083C95000815
:100BD000509500085C9500086C9500087895000811
:100BE0001F030000889500089C950008A095000848
:100BF000BC950008C81FFFFF4C040000000801401E
:100C000055530000CF2189007B181A68FA235B0036
:100C10009A420ADC7B181A6896235B009A4204DD2C
:100C2000DE4BC8229201DA6202E0DC4B0022DA627B
:100C3000E4239B00FB181B68012B00D15FE647E112
:100C4000D74B1B69102213400CD1322001F0C8F899
:100C5000D34B1B691022134004D10123E2229200DE
:100C6000BA181360CE4B1B692022134016D16420A2
:100C700001F0B6F8CA4B1B69202213400ED10023A5
:100C8000E4229200BA1813600123E6229200BA18F7
:100C900013600023E5229200BA18136080235B00E2
:100CA000180000F0E9FE0300D5229200B9180B608D
:100CB000BB18186802F008FEBA4ABB4B02F098FB5A
:100CC00002000B00100019000022B84B02F09AF845
:100CD00002000B001000190002F06EFE031CD42469
:100CE000A4003A191360B2493B19186801F0F6FEE6
:100CF000031C3A191360802000F0BEFE0300D322CB
:100D00009200B9180B60BB18186802F0DDFDA54A07
:100D1000A54B02F06DFB02000B0010001900002231
:100D2000A24B02F06FF802000B001000190002F055
:100D300043FE031CD225AD007A1913609C497B1930
:100D4000186801F0CBFE031C7A1913603B19186870
:100D500001F0EAFF0300D126B600BA1913607B192F
:100D6000186801F0E1FF0300D0229200B9180B606F
:100D70003B19186802F0D8FD02000B008D490824C9
:100D8000381903F0C1FF3B1901220121180001F0BD
:100D90007FF97B19186802F0C7FD02000B00864935
:100DA000381903F0B1FF3B1901220221180001F0AC
:100DB0006FF9E2239B00FB181B68002B0BD1D0229C
:100DC0009200BB181B68BA1912687C491C2038189D
:100DD00003F09AFF11E0E224A4003B191B68012BE9
:100DE0000BD10A235B420A22524274491C20381854
:100DF00003F08AFF00233A191360212001F09CFBC5
:100E0000322000F0EDFF1C23FB18180001F076FBE8
:100E1000322000F0E5FF402001F08EFB0023E722A6
:100E20009200BA18136001F0E9FB0300052B0EDCF9
:100E3000E7229200BB181B680133B9180B60BB187E
:100E40001B681E2B05DC642000F09AFFEBE7C04610
:100E500000E0C04601F0D2FB0300052B24DD584A18
:100E60001C243B191100180001F082FB3B191800EB
:100E700004F008F80300062B08D13A19514B110071
:100E8000180003F07DFE1AE001F065FB01F0B6FBEF
:100E9000031EF9D11C23FA184B4B1100180003F064
:100EA0006FFE0CE001F057FB01F0A8FB031EF9D127
:100EB0001C23FA18454B1100180003F061FE374B54
:100EC0000022DA62424B1B689B68180002F070FF38
:100ED000E4239B00FB181B68022B00D1B0E691E0D5
:100EE0002F4B1B692022134016D1322000F078FFCF
:100EF0002B4B1B69202213400ED10023E4229200C9
:100F0000BA1813600123E6229200BA181360002376
:100F1000E5229200BA181360214B1B69102213407E
:100F20000CD1322000F05CFF1D4B1B6910221340D6
:100F300004D10123E1229200BA181360E124A40035
:100F40003B191B68012B4BD1224B012201211800B8
:100F500001F09EF8204B01220221180001F098F8C0
:100F60001E235B421E22524214491C25781903F0AD
:100F7000CBFE1A4B180003F003FE212001F0DCFA2F
:100F8000322000F02DFF7B19180001F0B7FA322053
:100F900000F026FF00233A19136033E000080140F7
:100FA000000400506666666666660A400000B0404F
:100FB0000000C842CC950008D49500085095000860
:100FC0001F03000088950008A0950008BC95000844
:100FD00004000020DC950008F09500080496000845
:100FE000E1239B00FB181B68002B0BD1904B0122C7
:100FF0000121180001F04CF88E4B0122022118004B
:1010000001F046F8E4239B00FB181B68032B00D17A
:1010100066E704E1884B1B692022134016D1322079
:1010200000F0DEFE844B1B69202213400ED100230A
:10103000E4229200BA1813600123E6229200BA1843
:1010400013600023E5229200BA181360E022920098
:10105000BB181B68002B15D00023BA181360282377
:101060005B422822524275491C24381903F04CFE79
:10107000212001F061FA322000F0B2FE3B19180085
:1010800001F03CFA402001F057FA322000F0A8FEAF
:101090000023E7229200BA18136001F0AFFA0300B0
:1010A000052B0EDCE7229200BB181B680133B91830
:1010B0000B60BB181B681E2B05DC642000F060FE73
:1010C000EBE7C04600E0C04601F098FA0300052BAC
:1010D0003BDD5B4A1C243B191100180001F048FA63
:1010E0003B19180003F0CEFE0300062B1FD13A195E
:1010F000544B1100180003F043FD3A0052493B19CC
:10110000180003F021FE3B68180001F02DFE031CBF
:10111000DC24A4003A1913604C493B19186801F00B
:10112000C5FB031C3A1913601AE001F014FA01F030
:1011300065FA031EF9D11C23FA18454B110018005B
:1011400003F01EFD0CE001F006FA01F057FA031E51
:10115000F9D11C23FA183F4B1100180003F010FDC1
:10116000402000F089FC0300D7229200B9180B60E0
:10117000BB18186802F0A8FB374A384B02F038F960
:1011800002000B00100019000022354B01F03AFE5E
:1011900002000B001000190002F00EFC031CD62404
:1011A000A4003A1913603B19186802F0BDFB2D4AE0
:1011B0002D4B01F027FE02000B00100019002B4AF6
:1011C0002B4B02F015F902000B001000190002F081
:1011D000F3FB031C3A1913603B19186802F0A4FBD7
:1011E00002000B0023490824381903F08DFD3B1938
:1011F00001220121180000F04BFFDC239B00FB18AB
:10120000186802F091FB02000B001B49381903F02B
:101210007BFD3B1901220221180000F039FFE42375
:101220009B00FB181B68042B00D1F3E6FFF716FAAE
:101230000C96000820960008000400505095000805
:101240001F030000889500089C95000800401C467C
:10125000A0950008BC9500086666666666660A404A
:101260000000B040DBF97E6ABC74EF3F2506819533
:10127000438B0F40349600084496000880B582B036
:1012800000AF164B7B60164B3B6007E07A68131D7E
:101290007B603B68191D396012681A603A68114B0F
:1012A0009A42F3D304E03B681A1D3A6000221A60A8
:1012B0003A680D4B9A42F6D30C4B3B6004E03B6816
:1012C0001A1D3A601B6898473A68094B9A42F6D350
:1012D000C046C046BD4602B080BDC0467C9C0008EA
:1012E00000000020D4010020440300207C9C000862
:1012F0007C9C000880B500AF3B4B1A683A4B01213B
:101300000A431A60C046384B1B6804221340FAD0C7
:10131000354B0122DA60C046334BDB680C221340A8
:10132000042BF9D1314B1A68304B02210A431A6061
:101330002E4B1A682D4B01210A431A602A4B9A6BD7
:10134000294B802149050A439A63294B80221201C7
:101350001A60C046264B5B6810221340FAD1224B1C
:10136000DA68214B23490A40DA601F4BDA681E4BCA
:101370008821C9030A43DA601B4A1B4BD268DA6032
:10138000194A194BD268DA60174A174BD268DA60EB
:10139000154B1A68144B18490A401A60124B1A6808
:1013A000114B802149040A431A60C0460E4B1A684B
:1013B00080239B041340F9D00B4BDA680A4B0321BE
:1013C0008A43DA60084BDA68074B03210A43DA6084
:1013D000C046054BDB680C2213400C2BF9D1C046EC
:1013E000C046BD4680BDC0460010024000200240FD
:1013F00000700040FFFF02FFFFFFFFFE80B500AF5F
:10140000024B180000F008FAFEE7C0467896000884
:1014100080B500AF024B180000F0FEF9FEE7C046B1
:10142000A896000890B585B000AF78603960184B79
:101430001B68002B02D101235B4224E00023FB60E8
:101440000AE0FB685A1CFA603A68D418114B18007D
:1014500000F0ADF9030023707B68013B1A00FB68C4
:10146000934205D20B4B180000F0CCF9031EE8D1D3
:10147000FB68002B06D03A68FB68D31800221A706C
:10148000FB6800E000231800BD4605B090BDC046D3
:1014900070020020D801002080B584B000AF7860D1
:1014A0003960224B1B68002B02D101235B4238E0DC
:1014B0007B683F2B0BDCC0461D4B180000F0A2F9E7
:1014C00003004022D21A7B689A42F5D302E002233D
:1014D0005B4226E00023FB600BE03A68FB68D31810
:1014E0001A78134B1100180000F030F9FB68013333
:1014F000FB607B68FA689A42EFD30E4B1B680822A8
:1015000013400DD10B4B1A680A4B08210A431A608D
:10151000074B180000F04BF903001A00054B9A62C4
:1015200000231800BD4604B080BDC04670020020F4
:10153000240200200038014080B584B000AF7860FC
:1015400072B6C046454B00229A64444B9A6C434B9A
:101550005A64424B5A6C414B1A64414B00229A64C4
:101560003F4B9A6C3E4B5A643D4B5A6C3C4B1A6451
:101570003C4B01221A603C4B00221A603B4BDA6A5A
:101580003A4B01210A43DA62394BFB607968F8680B
:1015900001F0A0F80300FB60A023DB059A68A023FC
:1015A000DB058021C9020A439A60A023DB055A6843
:1015B000A023DB052F490A405A60A023DB051B68E6
:1015C0002D4A1A40A023DB05802109030A431A6033
:1015D000A023DB055A6AA023DB0540210A435A6297
:1015E000A023DB051B68254A1A40A023DB058021C8
:1015F00089030A431A60A023DB055A6AA023DB058E
:101600008021C9000A435A62184B5A6B174B80213C
:10161000C9010A435A631A4B1A68194B6C210A43D1
:101620001A60174B00225A60154B00229A60144B27
:10163000FA68DA60124B1A68114B01210A431A60EA
:10164000104B1A680F4B802109050A431A6062B6D5
:10165000C046C046BD4604B080BDC046D80100208B
:1016600024020020700200207402002000100240BA
:101670000048E801FFFDFFFFFFFFF3FFFFFFCFFF83
:101680000038014000E100E080B500AF084BDB69A5
:101690008022134001D000F025F8054BDB692022A1
:1016A000134001D000F006F8C046BD4680BDC046DC
:1016B0000038014080B500AF074B5B6ADAB2074BD8
:1016C0001100180000F042F8031E02D0044B012262
:1016D0001A60C046BD4680BD00380140D8010020D8
:1016E0007402002080B500AF164B180000F08AF895
:1016F000031E08D0134B180000F059F803001A001D
:10170000114B9A621BE0104B1A680F4B08218A4359
:101710001A600D4BDB694022134005D00A4B1A6A50
:10172000094B40210A431A62074BDB6980221340B0
:1017300005D0054B9A69044B10210A439A61C046B3
:10174000BD4680BD240200200038014080B582B033
:1017500000AF78600A00FB1C1A707B681A6C7B680B
:101760005B6C9A4205D17B689B6C002B01D00123F6
:1017700019E072B6C0467B681B6C591C7A6811640C
:101780007A68F91C0978D1547B689B6C5A1C7B6879
:101790009A647B681B6C402B02D17B6800221A6420
:1017A00062B6C04600231800BD4602B080BD80B5B9
:1017B00084B000AF78607B689B6C002B01D1002364
:1017C0001CE072B6C0467B685B6C591C7A68516439
:1017D0000F22BA187968CB5C13707B685B6C402B66
:1017E00002D17B6800225A647B689B6C5A1E7B681E
:1017F0009A6462B6C0460F23FB181B781800BD46DA
:1018000004B080BD80B582B000AF78607B689B6C0F
:101810001800BD4602B080BD80B582B000AF7860D0
:101820000B4B1B68002B09D101235B420BE07B684B
:101830005A1C7A6019000120FFF72EFE7B681B7886
:10184000002BF4D100231800BD4602B080BDC04675
:101850007002002080B582B000AF0200FB1D1A703C
:10186000FB1D19000120FFF717FEC046BD4602B060
:1018700080BD80B500AF044B1800FFF798FF030050
:101880001800BD4680BDC046D8010020B0B584B068
:1018900000AF786039601E4B1B68002B02D101231A
:1018A0005B4231E00023FB600B23FB1800221A701F
:1018B00017E0C046174B1800FFF7A4FF031EF9D02E
:1018C0000B257C19134B1800FFF771FF03002370E1
:1018D000FB685A1CFA601A007B689B187A19127808
:1018E0001A703B68013BFA689A4204DA0B23FB1832
:1018F0001B780D2BDDD1FB68002B04DDFB687A68BB
:10190000D31800221A70FB681800BD4604B0B0BDA1
:1019100070020020D801002090B583B000AFFC1DFC
:10192000FFF7A7FF03002370FB1D1B781800FFF7CC
:1019300091FFFB1D1B781800BD4603B090BDB0B5EC
:1019400084B000AF78603960214B1B68002B02D156
:1019500001235B4237E00023FB600B23FB180022CE
:101960001A701DE0C0461B4B1800FFF74BFF031E0B
:10197000F9D00B257C19174B1800FFF718FF03004F
:1019800023702C003B191B781800FFF763FFFB68DE
:101990005A1CFA601A007B689B183A1912781A7060
:1019A0003B68013BFA689A4204DA0B23FB181B7868
:1019B0000D2BD7D1FB68002B04DDFB687A68D318A8
:1019C00000221A70FB681800BD4604B0B0BDC046C6
:1019D00070020020D801002080B500AF244B5A6B64
:1019E000234B802189000A435A63224B1A69214BF9
:1019F000C02109060A431A611E4B1A681D4B0121BA
:101A00000A431A601B4B9A681A4B01210A439A60D9
:101A1000184BDA6880231B02134005D1C046154BD2
:101A20001B6801221340FAD0124B9B68012213401D
:101A300005D0104B9A680F4B02210A439A600D4B58
:101A40009A680C4B802109060A439A60C046094BEC
:101A50001A6880231B011340F9D0064B1A68054B06
:101A6000802109010A431A60C046BD4680BDC046B8
:101A7000001002400024014080B582B000AF7860C1
:101A8000164BDA68154B802109020A43DA60134BC2
:101A90007A689A62114B5A69104B07210A435A61BE
:101AA0007A6880239B029A4206D10D4B1A680C4B30
:101AB0008021C9030A431A60084B9A68074B042126
:101AC0000A439A60C046054B1B6804221340FAD0B3
:101AD000024B1B6C1800BD4602B080BD00240140C3
:101AE0000827014080B582B000AF7860FEE780B57E
:101AF00082B000AF786001235B421800BD4602B09F
:101B000080BD80B584B000AFF860B9607A60044BE6
:101B10000C221A6001235B421800BD4604B080BD50
:101B20002803002080B500AF034B0B221A6001236D
:101B30005B421800BD4680BD2803002080B582B0FE
:101B400000AF786039603B68802292015A600023C0
:101B50001800BD4602B080BD80B500AF012318005B
:101B6000BD4680BD80B582B000AF78603960044B5F
:101B700016221A6001235B421800BD4602B080BDE8
:101B80002803002080B582B000AF78603960044B34
:101B90001F221A6001235B421800BD4602B080BDBF
:101BA0002803002080B584B000AFF860B9607A6087
:101BB00000231800BD4604B080BD80B582B000AFE0
:101BC000786039603B68802292015A6000231800D7
:101BD000BD4602B080BD80B582B000AF7860012301
:101BE0005B421800BD4602B080BD80B582B000AF38
:101BF0007860044B02221A6001235B421800BD4644
:101C000002B080BD2803002080B582B000AF7860AC
:101C1000044B0A221A6001235B421800BD4602B041
:101C200080BDC0462803002080B582B000AF786038
:101C30007B68022B01D8012303E0044B09221A60C0
:101C400000231800BD4602B080BDC0462803002016
:101C500080B586B000AF7860124B7B61124B3B6160
:101C6000124B1B68002B02D1104B7A691A600F4B84
:101C70001B68FB600D4B1A687B68D3183A699A425F
:101C800005D20B4B0C221A6001235B4206E0074B86
:101C90001A687B68D218054B1A60FB681800BD46AD
:101CA00006B080BD44030020001000208002002008
:101CB0002803002080B588B000AFF860B9607A6072
:101CC0000023BB61FB68002B22D10023FB611AE0DB
:101CD000FFF7CFFD03001A0017217B181A70BB68AD
:101CE0005A1CBA607A181278D2B21A70BB690133E2
:101CF000BB617B181B78DBB20A2B01D1BB690EE0FC
:101D0000FB690133FB61FA697B689A42E0DB05E01D
:101D1000054B09221A6001235B4200E0BB691800F1
:101D2000BD4608B080BDC0462803002080B586B0FF
:101D300000AFF860B9607A60FB68013B012B11D8F5
:101D400000237B6109E0BB685A1CBA601B7818004D
:101D5000FFF780FD7B6901337B617A697B689A427A
:101D6000F1DB05E0054B09221A6001235B4200E02C
:101D70007B681800BD4606B080BDC0462803002021
:101D800080B582B000AF0200FB1D1A70FB1D1B78EE
:101D90001900104800F09EFC030019000E4800F0E6
:101DA00099FC03005A1E0D4B5A600C4B00229A609E
:101DB0000A4B05221A60C046084B1A6880235B0252
:101DC0001340F9D0054B00221A60C046BD4602B050
:101DD00080BDC04640420F000048E80110E000E02E
:101DE00080B584B000AF78600023FB6015E00B2362
:101DF000FB1800221A7008E0FA20FFF7C1FF0B2140
:101E00007B181A787B1801321A700B23FB181B7889
:101E1000032BF1D9FB680133FB60FA687B689A42B7
:101E2000E5D3C046C046BD4604B080BD80B500AF16
:101E3000A023DB055A69A023DB0502210A435A616E
:101E40002820FFF79DFFA023DB055A69A023DB05AF
:101E500002218A435A61C046BD4680BD80B582B02A
:101E600000AF0200FB1D1A70FB1D1B785BB2002B3C
:101E700008DAA023DB055A69A023DB0520210A43E9
:101E80005A6107E0A023DB055A69A023DB05202166
:101E90008A435A61FB1D1B784022134008D0A023BF
:101EA000DB055A69A023DB0510210A435A6107E0CC
:101EB000A023DB055A69A023DB0510218A435A6160
:101EC000FB1D1B782022134008D0A023DB055A6994
:101ED000A023DB0508210A435A6107E0A023DB05A4
:101EE0005A69A023DB0508218A435A61FB1D1B7830
:101EF0001022134008D0A023DB055A69A023DB057C
:101F000004210A435A6107E0A023DB055A69A02394
:101F1000DB0504218A435A61FFF788FF2820FFF779
:101F20002FFFFB1D1B780822134008D0A023DB05E0
:101F30005A69A023DB0520210A435A6107E0A02348
:101F4000DB055A69A023DB0520218A435A61FB1D6A
:101F50001B780422134008D0A023DB055A69A02374
:101F6000DB0510210A435A6107E0A023DB055A690B
:101F7000A023DB0510218A435A61FB1D1B78022236
:101F8000134008D0A023DB055A69A023DB050821F4
:101F90000A435A6107E0A023DB055A69A023DB0549
:101FA00008218A435A61FB1D1B780122134008D087
:101FB000A023DB055A69A023DB0504210A435A61EB
:101FC00007E0A023DB055A69A023DB0504218A432F
:101FD0005A61FFF72BFFC046BD4602B080BD80B5F9
:101FE00082B000AF0200FB1D1A70A023DB055A6906
:101FF000A023DB0501210A435A61FB1D1B78180051
:10200000FFF72CFF0220FFF7EBFEC046BD4602B0F3
:1020100080BD80B582B000AF0200FB1D1A70A02306
:10202000DB055A69A023DB0501218A435A61FB1DA8
:102030001B781800FFF712FF0520FFF7D1FEC046FE
:10204000BD4602B080BD80B500AFA023DB055A6954
:10205000A023DB0502218A435A611420FFF7C0FE4A
:102060003320FFF7D6FF3320FFF7D3FF3220FFF7EF
:10207000D0FF2820FFF7CDFF0C20FFF7CAFF01207B
:10208000FFF7C7FF1420FFF7ABFEC046BD4680BD7B
:1020900080B584B000AF786008001100FB1C021C02
:1020A0001A70BB1C0A1C1A70FB1C1B78022B01D176
:1020B000C02300E080231800FFF7ABFF0520FFF7E7
:1020C0008FFE0023FB6009E0FB687A68D3181B7859
:1020D0001800FFF784FFFB680133FB60FB687A6838
:1020E000D3181B78002BEFD1BB1C1B78002B09D019
:1020F00005E02020FFF773FFFB680133FB60FB68FE
:102100000F2BF6DDC046BD4604B080BD90B585B04E
:1021100000AF78603960184B1B68002B02D1012397
:102120005B4224E00023FB600AE0FB685A1CFA6073
:102130003A68D418114B180000F0ABF90300237073
:102140007B68013B1A00FB68934205D20B4B1800D9
:1021500000F0CAF9031EE8D1FB68002B06D03A68EC
:10216000FB68D31800221A70FB6800E000231800F7
:10217000BD4605B090BDC0461C030020840200206F
:1021800080B584B000AF78603960224B1B68002BAB
:1021900002D101235B4238E07B683F2B0BDCC04659
:1021A0001D4B180000F0A0F903004022D21A7B68F2
:1021B0009A42F5D302E002235B4226E00023FB6053
:1021C0000BE03A68FB68D3181A78134B110018001B
:1021D00000F02EF9FB680133FB607B68FA689A42D5
:1021E000EFD30E4B1B68082213400DD10B4B1A681E
:1021F0000A4B08210A431A60074B180000F049F9FE
:1022000003001A00054B9A6200231800BD4604B073
:1022100080BDC0461C030020D002002000440040C6
:1022200080B584B000AF786072B6C046454B0022DE
:102230009A64444B9A6C434B5A64424B5A6C414BE0
:102240001A64414B00229A643F4B9A6C3E4B5A648D
:102250003D4B5A6C3C4B1A643C4B01221A603C4B80
:1022600000221A603B4BDA6A3A4B01210A43DA62D8
:10227000394BFB607968F86800F02CFA0300FB60CA
:10228000A023DB059A68A023DB05802149050A43CA
:102290009A60A023DB055A68A023DB052F490A407A
:1022A0005A60A023DB051B682D4A1A40A023DB05DA
:1022B000802189050A431A60A023DB055A6AA023FE
:1022C000DB058021C9040A435A62A023DB051B6891
:1022D0009B009A08A023DB05802109060A431A60A7
:1022E000A023DB055A6AA023DB058021C9050A4328
:1022F0005A62184B9A6B174B802189020A439A63E2
:10230000184B1A68174B6C210A431A60154B0022B0
:102310005A60144B00229A60124BFA68DA60114B33
:102320001A68104B01210A431A600F4B1A680E4BB2
:10233000802149050A431A6062B6C046C046BD46C0
:1023400004B080BD84020020D00200201C030020C5
:1023500020030020001002400048E801FFBFFFFFFB
:10236000FFFFFFCF0044004000E100E080B500AF78
:10237000084BDB698022134001D000F025F8054BA3
:10238000DB692022134001D000F006F8C046BD46AC
:1023900080BDC0460044004080B500AF074B5B6A7B
:1023A000DAB2074B1100180000F042F8031E02D009
:1023B000044B01221A60C046BD4680BD0044004067
:1023C000840200202003002080B500AF164B1800C7
:1023D00000F08AF8031E08D0134B180000F059F8DB
:1023E00003001A00114B9A621BE0104B1A680F4B46
:1023F00008218A431A600D4BDB694022134005D047
:102400000A4B1A6A094B40210A431A62074BDB69DF
:102410008022134005D0054B9A69044B10210A43D2
:102420009A61C046BD4680BDD002002000440040F5
:1024300080B582B000AF78600A00FB1C1A707B6820
:102440001A6C7B685B6C9A4205D17B689B6C002B95
:1024500001D0012319E072B6C0467B681B6C591C81
:102460007A6811647A68F91C0978D1547B689B6C8E
:102470005A1C7B689A647B681B6C402B02D17B687A
:1024800000221A6462B6C04600231800BD4602B09E
:1024900080BD80B584B000AF78607B689B6C002BFA
:1024A00001D100231CE072B6C0467B685B6C591CEE
:1024B0007A6851640F22BA187968CB5C13707B6814
:1024C0005B6C402B02D17B6800225A647B689B6C5A
:1024D0005A1E7B689A6462B6C0460F23FB181B78AD
:1024E0001800BD4604B080BD80B582B000AF7860F2
:1024F0007B689B6C1800BD4602B080BD80B582B081
:1025000000AF78600B4B1B68002B09D101235B42A5
:102510000BE07B685A1C7A6019000120FFF730FE3F
:102520007B681B78002BF4D100231800BD4602B055
:1025300080BDC0461C03002080B582B000AF020001
:10254000FB1D1A70FB1D19000120FFF719FEC04684
:10255000BD4602B080BD80B500AF044B1800FFF748
:1025600098FF03001800BD4680BDC04684020020CD
:10257000B0B584B000AF786039601E4B1B68002B8B
:1025800002D101235B4231E00023FB600B23FB18E7
:1025900000221A7017E0C046174B1800FFF7A4FF7F
:1025A000031EF9D00B257C19134B1800FFF771FFA0
:1025B00003002370FB685A1CFA601A007B689B18A2
:1025C0007A1912781A703B68013BFA689A4204DA69
:1025D0000B23FB181B780A2BDDD1FB68002B04DDD5
:1025E000FB687A68D31800221A70FB681800BD4691
:1025F00004B0B0BD1C0300208402002080B500AFF1
:10260000034B1800FFF770FF03001800BD4680BDA4
:102610008402002090B583B000AFFC1DFFF79BFF44
:1026200003002370FB1D1B781800FFF785FFFB1DBF
:102630001B781800BD4603B090BDB0B584B000AFA4
:1026400078603960214B1B68002B02D101235B426B
:1026500037E00023FB600B23FB1800221A701DE0FB
:10266000C0461B4B1800FFF73FFF031EF9D00B2598
:102670007C19174B1800FFF70CFF030023702C0088
:102680003B191B781800FFF757FFFB685A1CFA60CC
:102690001A007B689B183A1912781A703B68013B44
:1026A000FA689A4204DA0B23FB181B780D2BD7D15A
:1026B000FB68002B04DDFB687A68D31800221A70CF
:1026C000FB681800BD4604B0B0BDC0461C03002026
:1026D0008402002003460B437FD4002243088B4230
:1026E00074D303098B425FD3030A8B4244D3030B99
:1026F0008B4228D3030C8B420DD3FF22090212BA5E
:10270000030C8B4202D31212090265D0030B8B42D9
:1027100019D300E0090AC30B8B4201D3CB03C01AC3
:102720005241830B8B4201D38B03C01A5241430B9E
:102730008B4201D34B03C01A5241030B8B4201D38E
:102740000B03C01A5241C30A8B4201D3CB02C01AF9
:102750005241830A8B4201D38B02C01A5241430A71
:102760008B4201D34B02C01A5241030A8B4201D360
:102770000B02C01A5241CDD2C3098B4201D3CB0107
:10278000C01A524183098B4201D38B01C01A5241B6
:1027900043098B4201D34B01C01A524103098B42BA
:1027A00001D30B01C01A5241C3088B4201D3CB00A5
:1027B000C01A524183088B4201D38B00C01A524188
:1027C00043088B4201D34B00C01A5241411A00D238
:1027D00001465241104670475DE0CA0F00D04942A1
:1027E000031000D34042534000229C4603098B4211
:1027F0002DD3030A8B4212D3FC22890112BA030A99
:102800008B420CD3890192118B4208D3890192111A
:102810008B4204D389013AD0921100E08909C3099F
:102820008B4201D3CB01C01A524183098B4201D3A1
:102830008B01C01A524143098B4201D34B01C01A8C
:10284000524103098B4201D30B01C01A5241C30804
:102850008B4201D3CB00C01A524183088B4201D373
:102860008B00C01A5241D9D243088B4201D34B008E
:10287000C01A5241411A00D20146634652415B10D0
:10288000104601D34042002B00D5494270476346B1
:102890005B1000D3404201B5002000F005F802BDF6
:1028A0000029F8D016E770477047C046F0B54F468C
:1028B0004646D6464502C0B547000C1C6D0A3F0E81
:1028C000C60F002F00D170E0FF2F00D175E0EB00A4
:1028D0008025ED041D43002399469A467F3F600200
:1028E000430A984663001B0EE40F002B4ED0FF2BCB
:1028F00046D04246D0008022D204024390460022B5
:102900007F3B3100FF1A4B466140C9B213430F2B86
:1029100000D9B5E06E489B00C3589F4600239846F7
:102920002600454692465346022B00D189E0032BF0
:1029300000D19EE0012B18D03B007F33002B69DDD6
:102940006A0704D00F222A40042A00D004352A0145
:1029500003D5604B1D403B008033FE2B00DD70E053
:10296000AD016D0AD8B202E00E0000200025C005BE
:102970002843F6073043E0BCBA46B146A846F0BD4E
:102980004346002B3FD10222FF3F03E04346002B8A
:102990002DD1012231004B466140C9B213430F2BA8
:1029A00034D84D489B00C3589F46002D13D10423B3
:1029B0009946033B00279A4691E7002D05D108234D
:1029C0009946063BFF279A4689E70C239946093B1F
:1029D000FF279A4683E7280001F000F97627431F76
:1029E0009D4000237F4299469A463F1A77E740462A
:1029F00001F0F4F84246431F9A4076235B4290462A
:102A00001B1A00227DE7FF2303227AE70E00FF2036
:102A10000025ACE70120C01A1B28A6DC9E372A003F
:102A2000BD40C2406B1E9D4115436B0704D00F2370
:102A30002B40042B00D004356B0144D50120002528
:102A400095E7FF20002592E780250026FF20ED0373
:102A50008DE7002398468020C003054209D04346F5
:102A6000034206D1454605436D022600FF206D0A4C
:102A70007DE78020C00305436D02FF206D0A76E7E5
:102A800042466B015001834219D21B220025013FAF
:102A900001261C006D005B00002C01DB984201D870
:102AA0001B1A3543013A002AF3D15A1E93411D43A4
:102AB0003B007F330E00002B00DD41E7AAE71A221E
:102AC00001251B1AE4E7AD0100206D0A4FE7C0465F
:102AD000CC960008FFFFFFF70C970008F0B54F46B3
:102AE0004646D64644024500C0B5640A0F1C2D0E6A
:102AF000C60F002D00D18DE0FF2D00D192E0002304
:102B0000802099469A46E400C00404437F3D780241
:102B1000430A98467B001B0EFF0F002B00D170E08C
:102B2000FF2B00D186E04246D00080227F3BED188B
:102B30000023D204024390469C4631004B46794024
:102B4000681C0F2B1CD8764A9B00D3589F4639002F
:102B50004446E2465346022B0FD0032B00D1D7E068
:102B6000012B37D100200024C0052043C9070843AA
:102B7000E0BCBA46B146A846F0BDFF200024F3E70A
:102B8000260C2404220C44462404240C434627002B
:102B90001B0C574374435A435E4312193B0C9B185A
:102BA0009C4203D980225202944666443F041A0490
:102BB0003F0CD2199401671EBC411B0C920E9B194D
:102BC00014439B011C431B0100D49BE001236208BA
:102BD0001C40144302007F32002A64DD630704D0E6
:102BE0000F232340042B00D00434230103D502001B
:102BF0004C4B80321C40FE2ABFDCA401640AD0B2D8
:102C0000B2E74346002B3DD14A4601331A43914671
:102C10009C4692E7002C29D104239946033B0025CA
:102C20009A4674E7002C1BD108239946063BFF25E2
:102C30009A466CE74346FF35002B0BD102234A46E8
:102C40001A4391469C4678E753463100022B00D048
:102C500083E792E703234A461A4391469C466CE772
:102C60000C239946093BFF259A4650E7200000F0C7
:102C7000B5FF7625431F9C4000236D4299469A4636
:102C80002D1A44E7404600F0A9FF4246431F9A40F0
:102C900000232D1A90469C46763D4EE78024002165
:102CA000FF20E40360E701239B1A1B2B00DD59E79B
:102CB00022009E30DA4084401300621E94411C437F
:102CC000630704D00F232340042B00D00434630196
:102CD0001AD50120002447E78020C003044209D010
:102CE0004346034206D14446044364023900FF20B0
:102CF000640A39E78020C003044364023100FF20E6
:102D0000640A31E7280065E7A4010020640A2BE784
:102D10008020C00304436402FF20640A24E7C04605
:102D20004C970008FFFFFFF741024200C30F490A1A
:102D30000020120E7E2A03DD9D2A02DD094A981822
:102D40007047802000040143952A07DC9620821AF0
:102D5000D1404842002BF3D10800F1E7963A914068
:102D6000F7E7C046FFFFFF7FF8B5002813D0C31771
:102D7000C6185E40C40F300000F030FF9E230500EF
:102D80001B1A962B0FDC082801DD083DAE407602A9
:102D9000760AD8B202E0002400200026C0053043A5
:102DA000E4072043F8BD992B0CDD05223100121AEF
:102DB000D1400A00010030001B318840411E88418B
:102DC00002431600052D12DC31000D4F3940720709
:102DD00009D00F203040042805D004314A0102D523
:102DE0009F2339405B1B89014E0AD8B2D6E76A1F80
:102DF00096403100024F39407207F4D0E9E7C046EF
:102E0000FFFFFFFBF0B557464E464546DE46E0B5B0
:102E1000814605000C03480092461F0085B0240B34
:102E2000400DCE0F002800D156E1D44B984200D17E
:102E300072E16B0FE4001C4380231B04234398467C
:102E4000CF4BED009B4600239946834400933C03FF
:102E50007B005046240B5B0DFF0F002B00D11FE1C0
:102E6000C64A934200D162E1C549420F8C46E40054
:102E700059461443802263441204CB1A14439B46E0
:102E8000C200002033007B409A464B460F2B27D8C8
:102E9000BC499B00CB589F46B246009B022B16D0E4
:102EA000032B00D18EE2012B00D0D9E000230024B7
:102EB000002552461B052343D2071343280019005F
:102EC00005B0F0BCBB46B246A946A046F0BD002402
:102ED0000025AA4BEDE7BA46A04615000090DCE7B6
:102EE000444500D2C7E100D1C2E101235B429C46C8
:102EF0002E0040460025E3442302140E1C431B0C05
:102F0000994623041F0C120249460092019700F0D3
:102F100061FE02007A430B04310C804619438A4259
:102F200007D901235B429C460919E0448C4200D832
:102F300007E2881A494600F04DFE09048C46310428
:102F40006646019A090C4243030031438A4204D980
:102F50000919013B8C4200D8EDE1881A424612045F
:102F60001A4390464146009B0E041B0C1F0002931F
:102F7000009B360C1B04190C0B007343120C7E4390
:102F8000039151437A431F0CBC4676186644B14204
:102F900003D9802149028C466244310C8A183104DD
:102FA0001E04360C8E19904202D312D1B54210D2B3
:102FB0004346591E009B9C4665441F009D429B4111
:102FC0005B421B19C018844200D2A0E100D19BE1F2
:102FD0008846AE1BB542AD41801A6D42401B84420B
:102FE00000D1D5E1494600F0F5FD019A0B044243BA
:102FF000310C050019438A4200D96CE1881A494610
:1030000000F0E8FD019A360442430904360C03003F
:103010000E43B24200D953E10398B61A02002D04C0
:103020001D43029F2B041B0C5A437B439C46290CD7
:103030004843130C844463447943984203D9802065
:10304000400284466144180C12041B04120C4118FF
:103050009B188E4200D2FFE000D1FAE001231D430D
:10306000494A5A44002A00DCAAE06B0700D03DE13F
:10307000ED084346DB0106D54246444B1A409046D4
:103080008022D2005A44424B9A4200DD1FE7434659
:103090005B071D43434652055C02240B530D08E7B2
:1030A0005246224300D17BE0002C00D1FAE0200000
:1030B00000F094FD02000B3A1D2301009B1A5246BA
:1030C0000839DA408C40144352468A40314B584408
:1030D0009B4683440020D5E64B462343984644D084
:1030E000002C00D1CEE0200000F078FD01000200AD
:1030F0000B391D235B1A49461000D940083884401B
:103100000B004D462343984685402348831A9B462F
:103110000023994600939AE64B46234398461DD1D7
:1031200008239946063B0025834600938FE65246C6
:10313000224309D1022349461943184B89469C462C
:1031400000240220E3449DE603234A461A43134B1E
:1031500091469C4652460320E34493E60C2399464D
:10316000093BA0468346009371E604239946002359
:103170009B4601330025009369E6C046FF07000027
:1031800001FCFFFF8C970008FF030000FFFFFFFE1C
:10319000FE070000F30300000DFCFFFF01F8FFFF36
:1031A0004946012319438946002401206AE6002389
:1031B00080249A4600258A4B24037AE601256D4235
:1031C00001239B1A382B00DD70E61F2B00DCBFE0CB
:1031D0001F2149428A1A4146D1400A00202B04D0BF
:1031E0004146804B5B4499400D436B1E9D41072334
:1031F0002A431D0000241540134200D1D4E00F21C2
:1032000000231140042900D1CBE0111D91429241CD
:1032100052429B180A00190200D4C2E00123002484
:10322000002546E6802341461B03194208D01C4274
:1032300006D11C432403BA461500694B240B38E61B
:103240008024434624031C432403B246644B240BCE
:103250002FE6002B00D103E7A619681EA64200D274
:103260008DE08E4200D2A3E000D1B3E00500F5E688
:10327000AA4200D939E64346DE0758086B081E43C8
:10328000ED0739E6484600F0A9FC010002001531BF
:1032900020321C2900DC2CE74B46083883400025EF
:1032A000984632E700F09AFC03001A0015322030ED
:1032B0001C2A00DC00E75446083B00229C4005E73E
:1032C0003619013BB44200D9A6E6B24200D8A3E6C3
:1032D000831E3619A0E60919013D8C4200D98DE6FE
:1032E0008A4200D88AE6851E091987E60F232B40FB
:1032F000042B00D1BCE605235B42AB429B41043565
:103300005B42ED089844B4E6AF4200D960E68242E1
:1033100004D800D05CE6AE4200D859E602235B42F6
:103320009C46009BE0449C4665449D429B415B4219
:103330001B19C0184DE68A4200D80EE6831E0919F3
:103340000BE68A4200D8F4E5831E98460919F0E599
:103350002549280059448D4042468A40691E8D41C6
:103360004146D840D94002432A430B00510700D1BF
:1033700051E70F211140042900D046E74BE7050033
:103380008E4200D06AE6009A934200D066E667E675
:10339000164A5A44002A00DC10E70123002598440D
:1033A00067E65D075B021C0BD2080023154380E52E
:1033B0000098023D42008242BF417F423C193619CB
:1033C0000092DDE78024434624031C432403044B7E
:1033D000240B6EE5009A9A42EAD30500D3E7C04673
:1033E000FF0700003E0400001E040000FF03000071
:1033F000F0B557464E464546DE46E0B598460C03C6
:103400004B000600924687B0240B5B0DCF0F002BBC
:1034100000D15CE1D94A934200D175E1420FE4004A
:103420001443802212041443D54AC50094466344D1
:103430000093002399469B46434642461E03D20F03
:103440005B0050469046360B5B0D00D120E1CB4A25
:10345000934200D162E1CA49420F8C46009963440D
:10346000F6008C46164380229C44120463461643A1
:10347000C200002000930099434601318C46494622
:103480007B4001930F2926D8BE4B890059588F469F
:10349000434601933400150083465B46022B16D049
:1034A000032B00D103E2012B00D0CDE00022002449
:1034B0000025019B12052243DB071A432800110057
:1034C00007B0F0BCBB46B246A946A046F0BD0024FA
:1034D0000025AA4AEDE7280C2D042D0C2B00110C19
:1034E0001204120C5343984613002F00434399468D
:1034F0004F434F44BB4647460B003F0CBA4643433D
:10350000DA440293D14504D980277F02B9464B445F
:10351000029353461B0C9B4653461F0443461B0411
:103520001B0C98463B0043440493330C3604360C82
:103530009846330043439946434643432F009A46F7
:10354000434677435D43380C4D444519A94503D99B
:1035500080235B029946CA443F04280C3F0C2D048B
:10356000ED19270C2404240C0300200050437A4357
:1035700091463A0053440593030C9A464A436143EB
:1035800049445144AB44894503D980235B029946A1
:103590004A4400040B0C000C090409182000994649
:1035A000434670435C437E435F43030C9846A41933
:1035B00044444A440397A64204D980235B029846B8
:1035C000474403972304029E9A46059B5E4498460F
:1035D000AE42AD4176188E4289410004000C504441
:1035E00040446D424719B846934649428946C34410
:1035F000D94498428041A845AD41934592418945BF
:1036000089416D4240422843240C524249420A43B8
:10361000039B00198018C7184B46DC0D049B7502EC
:103620001D436A1E95414B46F60D7F0235435A02F3
:103630003C431543FB0100D41CE101216A080D4005
:103640001543E207154364084F496144002900DC33
:10365000B0E06B0709D00F222A40042A05D02A1DAA
:10366000AA42AD416D4264191500E30104D58021E1
:10367000464AC90014406144454A914200DD26E7AC
:103680006207ED08640249051543240B4A0D10E753
:103690005246324300D17FE0002E00D1DCE0300002
:1036A00000F09CFA02000B3A1D2301009B1A5246BF
:1036B0000839DA408E40164352468A40009B35490D
:1036C000181A03008C46634400200093D3E62500BB
:1036D00005434AD0002C00D1B0E0200000F07EFA73
:1036E000010002000B391D2310005B1A3100350068
:1036F00008388440D94085400C432648831A0093FB
:10370000002399469B4697E60500254326D10822CB
:1037100000930223002491469B468DE65246009B6F
:10372000324310D1154900268C4663444946009324
:1037300002231943894602209DE65B460197022B2E
:1037400000D0ADE6C3E60D4A0320944663444A46E2
:10375000009303231A43914652468CE60C220093B1
:103760000323050091469B4666E604239946002301
:103770000093013300249B465EE6C046FF0700002D
:1037800001FCFFFFCC970008FF030000FFFFFFFED6
:10379000FE0700000DFCFFFF49460123194389463F
:1037A0000026012067E6002380240025434A019378
:1037B00024037EE60120401A382800DD76E61F2823
:1037C0005BDD1F2223005242511ACB4019002028F2
:1037D00003D03B4A6244944025436A1E95412A0027
:1037E0000A4307210D000024154011425BD00F2130
:1037F00000241140042953D0111D9142924152429C
:10380000A4180A0023024BD501220024002550E60B
:1038100080231B031C4209D01E4207D133431C03E3
:1038200043461500240B254A019342E680221203E9
:1038300014432403214A240B01973AE600F0CEF901
:1038400001000200153120321C2900DC4BE7340056
:1038500008380025844050E700F0C0F903001A0042
:10386000153220301C2A00DC1EE75646083B002299
:103870009E4023E7009B9C46E6E6124922006144F5
:103880002E008D408A40C640691E8D4132432A4336
:10389000C4405307B6D00F2111400429ACD1B1E781
:1038A00065076402240BD2081543002201E680223A
:1038B000120314432403014A240BFAE5FF07000016
:1038C0003E0400001E04000070B5002816D0C31787
:1038D000C5185D40C40F280000F080F9114A121A83
:1038E0000A2816DC03002E0015339E400B23181AFD
:1038F000C54052052D032D0B530D03E0002400237A
:10390000002500261B052B43E40723433000190044
:1039100070BD0B38854052052D0300262D0B530D2D
:10392000F0E7C0461E04000070B543004602C40F15
:10393000FE201B0E591C750A08420CD0E022920092
:1039400094466D07360B63441B053343E40723435A
:103950002800190070BD002B14D1002D1BD02800A9
:1039600000F03CF90A281CDC0B232E001B1ADE4059
:10397000030015339D400E4A3603121A5205360BCA
:10398000530DE1E7002D09D08022360B1203094BBD
:103990006D071643D8E700230026D5E70026054B20
:1039A000D2E703000B3B9D402E000025E3E7C04615
:1039B00089030000FF07000002004B00F0B55B0D1B
:1039C0000C033D4E640A400F5F1CC90F0443D50031
:1039D00037420AD039481E18FE2E16DDFF2000247B
:1039E000C0052043C9070843F0BD002B06D12C4376
:1039F00026D005229201540AD8B2F1E72543EDD032
:103A00008020C0030443FF20EAE7002E1BDD920163
:103A1000531E9A41E4006D0F22432A43530748D0B6
:103A20000F231340042B00D004328023DB04134007
:103A30003FD0701CFE2ED1D09201540AC0B2CFE705
:103A400000200024CCE73200173222DB8020000463
:103A500020431E24A41B1F2C1DDD02225242961B54
:103A60000200F2401600202C04D0154A944663440C
:103A7000984005432A00531E9A41324300265307BB
:103A8000CED180241300E404012023402242D3D16C
:103A9000B0E70023ADE70B4A94462A00E240140049
:103AA0002A0063449A409840551EAA41024322438B
:103AB000E4E733009EE7C046FE07000080FCFFFFFE
:103AC000A2FCFFFF82FCFFFF002243088B4274D35D
:103AD00003098B425FD3030A8B4244D3030B8B420F
:103AE00028D3030C8B420DD3FF22090212BA030C18
:103AF0008B4202D31212090265D0030B8B4219D3F9
:103B000000E0090AC30B8B4201D3CB03C01A524118
:103B1000830B8B4201D38B03C01A5241430B8B4260
:103B200001D34B03C01A5241030B8B4201D30B0349
:103B3000C01A5241C30A8B4201D3CB02C01A524170
:103B4000830A8B4201D38B02C01A5241430A8B4233
:103B500001D34B02C01A5241030A8B4201D30B021C
:103B6000C01A5241CDD2C3098B4201D3CB01C01A36
:103B7000524183098B4201D38B01C01A5241430940
:103B80008B4201D34B01C01A524103098B4201D32E
:103B90000B01C01A5241C3088B4201D3CB00C01A9B
:103BA000524183088B4201D38B00C01A5241430813
:103BB0008B4201D34B00C01A5241411A00D2014638
:103BC000524110467047FFE701B50020FEF76CFE3A
:103BD00002BDC0460029F7D076E770471C210123BB
:103BE0001B04984201D3000C10391B0A984201D3E0
:103BF000000A08391B09984201D30009043902A2BE
:103C0000105C40187047C046040302020101010124
:103C10000000000000000000F7B58B8905000C00D3
:103C20001A075FD44A68002A04DC0A6C002A01DC07
:103C30000020FEBDE76A002FFAD0002280212E6806
:103C40002A601A0049010A400B4234D0606DA389F2
:103C50005B0706D56368C01A636B002B01D0236C29
:103C6000C01A0200216A00232800E76AB847A18928
:103C7000431C06D12B681D2B31D82C4ADA40D307C0
:103C80002DD50023636023692360CB0405D5431C35
:103C900002D12B68002B00D16065616B2E6000297A
:103CA000C6D023004433994202D0280000F004FA21
:103CB00000206063BDE701232800216AB847431C48
:103CC000C5D12B68002BC2D01D2B01D0162B01D1E2
:103CD0002E60ADE74023A2891343A381A9E74023C7
:103CE0000B43FAE70F69002FA2D00A680F60D21BBE
:103CF000019200229B0700D14A69A260019B002B20
:103D000000DC95E73A002800019B216AA66AB047CB
:103D1000002806DC40230120A28940421343A381EE
:103D200087E7019B3F181B1A0193E7E7010040203A
:103D30000B6970B505000C00002B02D1002528008E
:103D400070BD002804D08369002B01D100F0C8F8B1
:103D5000144B9C421BD16C680C22A35E002BEDD04F
:103D6000626ED20704D49B0502D4A06D00F094F9D2
:103D700028002100FFF750FF636E0500DB07DED44B
:103D8000A3899B05DBD4A06D00F08CF9D7E7064B27
:103D90009C4201D1AC68DFE7044B9C42DCD1EC686B
:103DA000DAE7C0462C9800084C9800080C980008E8
:103DB000010010B5002805D1054B0649186800F030
:103DC00046F910BD044B1868FFF7B2FFF9E7C0468B
:103DD0006C980008313D000804000020002310B555
:103DE0000400036043608360818143661900C281DF
:103DF00003614361836108225C3000F054F9054B94
:103E000024626362044BA362044BE362044B2363AA
:103E100010BDC046E94D0008154E00084D4E000883
:103E2000794E000810B5024900F011F910BDC046E6
:103E3000313D0008436E10B5DB0705D483899B052F
:103E400002D4806D00F028F9002010BD436E10B53B
:103E5000DB0705D483899B0502D4806D00F022F92D
:103E6000002010BD70B568254A1E55430E0029007C
:103E7000743100F08DF9041E08D000212A00016081
:103E800046600C30A060683200F00DF9200070BD73
:103E900010B5024B1868FFF7C5FF10BD6C980008FD
:103EA00010B5024800F0F8F810BDC04632030020FB
:103EB00010B5024800F0F6F810BDC04632030020ED
:103EC00010B5024800F0E8F810BDC04633030020EA
:103ED00010B5024800F0E6F810BDC04633030020DC
:103EE00013B50400FFF7ECFFA369002B02D0FFF726
:103EF000EFFF13BDA364E3642365134B134A1B68F0
:103F0000A2620193A34201D10123A361200000F02A
:103F10001FF86060200000F01BF8A060200000F097
:103F200017F800220421E0606068FFF757FF0122C4
:103F30000921A068FFF752FF02221221E068FFF773
:103F40004DFF0123A361D2E76C980008253E0008CD
:103F5000F8B50700FFF7A4FF1F4B1E68B369002BDD
:103F600002D13000FFF7BCFF4836B4687368013BEC
:103F700004D53368002B22D03668F6E70C22A55E04
:103F8000002D1AD12000154B5830E360656600F013
:103F90007FF8FFF78DFF2000082229002560A5602B
:103FA000656025616561A5615C3000F07CF8656342
:103FB000A563A564E5642000F8BD6834D7E7042153
:103FC0003800FFF74FFF041E3060D5D1FFF770FFB8
:103FD0000C233B60EFE7C0466C9800080100FFFF30
:103FE00010B5FFF75DFF034B0349186800F014F8A4
:103FF00010BDC04604000020353E000810B5044B3B
:104000000449186800F008F8FFF752FF10BDC046D9
:10401000040000204D3E0008F7B54830040000269B
:104020000191A5686768013F04D52468002CF8D188
:104030003000FEBDAB89012B07D90E22AB5E0133E8
:1040400003D02800019B984706436835EBE7F7B596
:10405000040006000027019148346368A5680093B6
:10406000009B013B009304D52468002CF5D1380057
:10407000FEBDAB89012B08D90E22AB5E013304D003
:1040800029003000019B984707436835E8E77047EF
:104090007047704770477047704701207047012094
:1040A00070477047704703008218934200D17047F1
:1040B00019700133F9E7000070B50500002910D030
:1040C0000C1F2368002B00DAE418280001F038FFE9
:1040D0001D4A1368002B05D163601460280001F0AD
:1040E00037FF70BDA34208D9216860188342F3D11D
:1040F00018685B6841182160EEE71A005B68002BC6
:1041000001D0A342F9D911685018A0420BD1206800
:104110000918501811608342E0D118685B68411893
:1041200011605360DAE7A04202D90C232B60D5E777
:1041300021686018834203D118685B6841182160C8
:1041400063605460CAE7C0463803002070B50F4E64
:104150000D0031680400002902D100F0A7FD306095
:104160002900200000F0A2FD431C0AD00323C51C37
:104170009D43A84207D0291A200000F097FD431C58
:1041800001D101256D42280070BDC0463C030020CE
:10419000F7B50322CB1C9343083306001F000C2BFA
:1041A00032D20C27B94231D8300001F0C9FE324D6D
:1041B0002B681C00002C2ED139003000FFF7C6FF01
:1041C0000400431C1ED12C682500002D4AD1236811
:1041D0002900E3183000019300F068FD019B834241
:1041E00043D123680337FF1A03239F4308370C2F5B
:1041F00000D20C2739003000FFF7A8FF431C34D051
:104200002368DF19276013E0002BCBDA0C2300258D
:1042100033602800FEBD2268D11B20D40B2917D99A
:10422000E2192760A34211D12A60636811605360CC
:104230003000250001F08CFE07220B35231D95432D
:10424000EA1A9D42E5D05B1BA350E2E75A60ECE717
:104250006268A34201D12A60EAE75A60E8E72300D6
:104260006468A7E72C006D68AFE70C23300033606B
:1042700001F06EFECDE7C04638030020F0B51E0009
:10428000002314008BB09E4204DA802109067318C3
:104290001E002D23129A149F1370202303229F4384
:1042A000462F07D03B00453B59424B411099013AFC
:1042B000CB18109309AB049308AB0393139B0092A4
:1042C0000293109B22000193330000F06DFF050064
:1042D000472F02D1119BDB0728D5109BEB180793C2
:1042E000462F14D12B78302B0CD100220023200034
:1042F000310003F0CFFF002804D10123109A9B1A4C
:10430000139A1360139B079A1B68D3180793002214
:1043100000232000310003F0BDFF002801D0079BDF
:1043200009933022099B07998B4206D32800099BE9
:10433000159A5B1B13600BB0F0BD591C09911A70E4
:10434000F0E7F0B5831C87B0039305000C002B2326
:104350000270002901DA4C4202336B70092C31DD06
:104360000A2704ABDE1D200039000196FEF798FAFB
:10437000013E30312000317039000294FEF7AAF975
:10438000029B0400632BEEDC019B30349A1E130069
:104390000399147004A8073098420ED804AB073371
:1043A00000209A4204D804AB0930C018019BC01AFF
:1043B000039B1818401B07B0F0BD18780133087034
:1043C0000131E7E73023E418AB70281DEC70F1E70A
:1043D000F0B595B00C0009921E001A9D070001F07F
:1043E000FFFC036818000C9300F04CFD00231293AF
:1043F000237E07220A9323680E900D930D992B6854
:10440000C90547D59B1893431A0008322A601A68D9
:104410005B68A264E3640122A36CE56C0B936B0000
:104420005B080F930B98A74B0F99524204F03AFF89
:10443000002831D10122A34B0B980F99524203F06F
:1044400039FF002828D10022002329000B9803F00F
:1044500027FF002803D023002D2243331A700A9B24
:10446000994D472B00D9994D03230D9A23610133B0
:104470009A43002322600B93099B21003800009689
:1044800013AA00F0E7F9431C00D0A2E0012040424B
:1044900015B0F0BD0733B6E70B9A2B0010002900CA
:1044A00004F000FF00280BD0002D03DA23002D229A
:1044B00043331A700A9B864D472BD5D9854DD3E7D8
:1044C00020220A99636891430F915A1C49D10733FE
:1044D000636080230D9ADB0013430022069212AA28
:1044E00005920A9A08A9049211AA03922322236032
:1044F0000193636852180292009338002B000B9AC4
:10450000FFF7BCFE0F9B05001199472B08D1CB1C70
:1045100002DB6368994248DD0A9B023BDBB20A93E7
:104520000A9B652B24D820001A00013950301191C4
:10453000FFF707FF129A0B9013182361012A02DC80
:104540002268D20701D501332361232308AA9B18CF
:104550001B78002B00D18FE723002D2243331A70E4
:104560008AE70F9A472AB4D1002BB2D10133AFE7C3
:104570000A9B662B1BD1636800290DDD2161002B8E
:1045800002D12268D20702D5013359182161119B4B
:10459000A36500230B93D8E7002B03D101222168E8
:1045A000114200D09A1C2261F1E767230A93119B04
:1045B000129A934206DB22682361D207E7D50133C2
:1045C0002361E4E70121002B01DC4918C91A5218C4
:1045D000E9E72268530507D423692A0038000999BE
:1045E000B047431C28D151E70A9B652B00D8E1E076
:1045F000A06CE16C0022002303F04CFE002831D0B7
:1046000001233800344A0999B047431C00D13DE7E3
:10461000119B129A934202DB2368DB070CD538000A
:104620000E9B0C9A0999B0470025431C00D12DE739
:10463000129B013BAB420ADC23689B0700D506E1D5
:10464000139BE068984200DB22E7180020E7220075
:104650000123380009991A32B047431C00D115E7ED
:104660000135E5E7119B002B38DC012338001A4A9D
:104670000999B047431C00D108E7119B129A1343D4
:1046800002D12368DB07D7D50E9B38000C9A099915
:10469000B047431C00D1F9E600230A93119B0A9A04
:1046A0005B42934201DC129B97E722000123380012
:1046B00009991A32B047431C00D1E7E60A9B01333F
:1046C000EBE7C046FFFFEF7F709800087498000882
:1046D000789800087C980008119B0008129AA36D36
:1046E0000A929A4200DD0A930A9B002B3CDC0023CD
:1046F0000D930A9BDB43DB170F93A36D0F9A0B936C
:104700000A9B13400B9AD31A0D9A934234DC119BE7
:10471000129A93423DDB2368DB073AD4129A0B9B33
:104720001199D31A521A0A929A4200DD0A930A9BEF
:10473000002B36DC0A9B0025DB43DB170B93119A19
:10474000129B0B999B1A0A9A0A409B1AAB4200DCF7
:1047500072E722000123380009991A32B047431C3E
:1047600000D193E60135EAE70A9B2A00380009994F
:10477000B047431CBBD189E62200012338000999C8
:104780001A32B047431C00D180E60D9B01330D93D4
:10479000B3E70E9B38000C9A0999B047431CBDD172
:1047A00074E60B9B3800EA1809990A9BB047431C32
:1047B000C0D16BE6129B012B02DC01231A4234D0DC
:1047C00001232A0038000999B047431C00D15DE657
:1047D0000E9B38000C9A0999B047431C00D155E64E
:1047E000A06CE16C0022002303F054FD00281AD1D4
:1047F000129B6A1C013B38000999B047431C0ED13B
:1048000044E622000123380009991A32B047431CBC
:1048100000D13BE60135129B013BAB42F1DC2200AB
:104820000B9B5032DAE60025F5E72A00E3E7220089
:104830000123380009991932B047431C00D125E6FD
:104840000135E368139A9B1AAB42F0DCF8E60025C9
:10485000F7E7C046F7B5150001938A680B690C00AD
:104860000090934200DA130022002B60433212784A
:10487000002A01D001332B6023689B0602D52B68E8
:1048800002332B602268062317001F401A4227D0EC
:10489000230043331B785A1E93412268920630D47A
:1048A000220001990098089E4332B047431C25D04E
:1048B000062320682A68E16800250340042B03D101
:1048C0008D1AEB43DB171D40A3682269934201DD7B
:1048D0009B1AED180027BD4220D1002010E00137BF
:1048E000E3682A689B1ABB42D2DD220001230199AA
:1048F0000098089E1932B047431CF0D10120404275
:10490000FEBD3020E1184331087021005A1C4531AA
:104910000978A218433202331170C1E72200012343
:1049200001990098089E1A32B047431CE6D001371F
:10493000D1E70000F0B58BB006920A00433207932E
:10494000059004920A7E0C00109B782A07D8622AF0
:1049500009D8002A00D1C1E0582A00D18CE02600F5
:104960004236327022E0100063381528F7D803F081
:1049700077FC16001F00F6FFF6FFF6FFF6FF1F009C
:10498000F6FFF6FFF6FFF6FFA80036009A00F6FFE6
:10499000F6FFB900F6FF3600F6FFF6FF9E00260090
:1049A0001A684236111D1960136833700123A7E09D
:1049B000086819680A1D05060BD50D681A60002DD8
:1049C00003DA2D23049A6D421370614B0A27039377
:1049D0001BE00D681A604106F1D52DB2EFE70D68B6
:1049E0001968081D18602E0601D50D6803E06D06D4
:1049F000FBD50D68ADB2564B082703936F2A00D044
:104A000002372300002243331A706368A360002B2F
:104A100003DB0422216891432160002D02D1049E12
:104A2000002B0CD0049E28003900FFF7D3F8039B1D
:104A3000013E5B5C33702B0005009F42F3D9082FC9
:104A400009D12368DB0706D563682269934202DC3B
:104A50003023013E3370049B9B1B2361079B210085
:104A600000930598069B09AAFFF7F4FE431C4CD15E
:104A7000012040420BB0F0BD45310A70344A039228
:104A80001A68216820CA1A60080616D5CB0702D515
:104A90002023194321601027002DB2D12023226842
:104AA0009A432260ADE7202209680A43226022006F
:104AB000782145321170274AE1E74806E6D5ADB2C4
:104AC000E4E71A680D68101D4969186013682E061E
:104AD00001D5196002E06D06FBD519800023049E04
:104AE0002361BBE71A68111D1960166800213000A8
:104AF000626801F011FA002801D0801B60606368D1
:104B000023610023049A1370A8E7236932000699F1
:104B10000598079DA847431CAAD023689B0715D476
:104B2000099BE0689842A5DA1800A3E72200012358
:104B300006990598079E1932B047431C98D0013555
:104B4000E368099A9B1AAB42F0DCE9E70025F7E736
:104B500080980008919800080EB417B5041E04D080
:104B60008369002B01D1FFF7BBF906AB2000059A42
:104B7000A168019302F0F6FA1EBC08BC03B0184706
:104B80000FB40B4B13B51C68002C05D0A369002B88
:104B900002D12000FFF7A4F905AB2000049AA16818
:104BA000019302F0DFFA16BC08BC04B01847C046F7
:104BB0000400002070B505000E00002804D08369B1
:104BC000002B01D1FFF78CF9AB69AC68002B02D147
:104BD0002800FFF785F92D4B9C4222D16C68636E4B
:104BE000DB0705D4A3899B0502D4A06DFFF754FA17
:104BF000A3891B0702D52369002B29D12100280096
:104C000000F0BCF9002823D001256D42636EDB075C
:104C100005D4A3899B0502D4A06DFFF743FA2800B1
:104C200070BD1B4B9C4201D1AC68D8E7194B9C422C
:104C3000D5D1EC68D3E70136A360002B04DAA26972
:104C40009A4216DC0A2914D023685A1C2260197073
:104C5000A3683178013B0029EDD1A360002B0FDA66
:104C6000280022000A3100F015F90A25431CCDD195
:104C7000CAE72200280000F00DF9431CE8D1C3E781
:104C80000A2523685A1C22601D70BFE72C98000873
:104C90004C9800080C98000810B5034B01001868E8
:104CA000FFF788FF10BDC04604000020002370B548
:104CB000064D040008002B60FCF7CAFF431C03D11B
:104CC0002B68002B00D0236070BDC0462803002055
:104CD0000CB400B59DB00291069109491EAB079135
:104CE0000491084904CB059102A9019301F02AFF20
:104CF0000023029A13701DB008BC02B01847C046CA
:104D0000FFFFFF7F0802FFFF0EB400B50B499CB008
:104D10001DAB02900690079104910948094904CB04
:104D20000591006802A9019301F00CFF0023029A8B
:104D300013701CB008BC03B01847C046FFFFFF7FCC
:104D4000040000200802FFFF0EB430B581239CB0A0
:104D50006A461FAC9B0020CC93820290069000F024
:104D600091F80B4B6A460B93002303900790094878
:104D70000F931493013BD38202A923002A000068F9
:104D8000019402F03BF81CB030BC08BC03B01847DB
:104D9000114E0008040000200CB470B581239CB0B3
:104DA0006A4620AC05009B00080040CC938202912B
:104DB000069100F067F80B4B6A460B9300230F93A4
:104DC0001493013B03900790D38228002300320004
:104DD00002A9019402F012F81CB070BC08BC02B029
:104DE0001847C046114E000870B50C000E25495FEB
:104DF00002F060FC002803DB636D1B18636570BD67
:104E0000A389024A1340A381F9E7C046FFEFFFFFE1
:104E100000207047F8B51F008B8905000C001600B4
:104E2000DB0505D50E23C95E0022022300F0E0FF5A
:104E3000A389054A28001340A38132000E23E15EB6
:104E40003B0000F087F8F8BDFFEFFFFF70B50C00E6
:104E50000E25495F00F0CCFFA389421C03D1054A0F
:104E60001340A38170BD802252011343A38160656A
:104E7000F8E7C046FFEFFFFF10B50E23C95E00F054
:104E8000F5F810BD0023C25C0133002AFBD1581E87
:104E900070470000F8B505000E001400002804D08B
:104EA0008369002B01D1FFF71BF8224B9C422ED1C6
:104EB0006C68A369A360A3891B0732D52369002B03
:104EC0002FD023682269F7B2981A6369F6B2834239
:104ED00005DC21002800FEF72BFF002827D1A3685E
:104EE0000130013BA36023685A1C22601F70636974
:104EF000834204D0A389DB0707D50A2E05D1210000
:104F00002800FEF715FF002811D13000F8BD0A4B2C
:104F10009C4201D1AC68CCE7084B9C42C9D1EC68FB
:104F2000C7E72100280000F029F80028C9D0012691
:104F30007642EAE72C9800084C9800080C98000884
:104F400010B5034B0A0001001868FFF7A3FF10BD5E
:104F50000400002070B50400080011001A000023AE
:104F6000054D2B60FCF7E2FE431C03D12B68002BA0
:104F700000D0236070BDC04628030020374B70B5B9
:104F80001D6806000C00002D05D0AB69002B02D176
:104F90002800FEF7A5FF324B9C420FD16C680C2312
:104FA000E25E93B211072DD4D90611D40923012052
:104FB000336037331343A381404270BD294B9C4279
:104FC00001D1AC68EBE7284B9C42E8D1EC68E6E7FE
:104FD0005B0713D5616B002908D023004433994245
:104FE00002D03000FFF768F8002363632422A3890E
:104FF0009343A38100236360236923600823A2896C
:105000001343A3812369002B0BD1A0218022A38904
:10501000890092000B40934203D02100300000F041
:1050200023FF0C22A35E01201A0099B20240034222
:105030000FD00022A26062695242A2610020226960
:105040008242BAD10A06B8D540221343A38101385F
:10505000B3E7880700D46269A260EFE7040000208C
:105060002C9800084C9800080C980008002370B594
:10507000064D040008002B60FCF739FD431C03D1EA
:105080002B68002B00D0236070BDC0462803002091
:10509000F0B506000B69326987B0002003919A428F
:1050A00065DB013B9C0000930B00143305931B1937
:1050B00004933300143302931C19049B27681B6864
:1050C00038005D1C29000193FEF7FEFC0190AF4201
:1050D00024D30025AC460298059F08CF019A99B2C7
:1050E00051431B0C534349190A0C9B18026889B29F
:1050F00092B26244521A01681D0C090C9BB2CB1A81
:1051000011145B18191492B21B041A43049B8C46A9
:1051100004C0BB42E1D22368002B30D03000039999
:1051200001F0EEF9002821DB30000024019B0399F7
:105130000133019314301431036820C99AB2141951
:10514000AAB2A21A1B0C2D0C14145B1B1B191C14E5
:1051500092B21B04134308C0049B8B42ECD2009B09
:10516000029A9B00D3181A68002A15D0019807B03C
:10517000F0BD2368002B06D1009B013B0093029BEE
:10518000043CA342F5D3009B3361C7E71A68002AA9
:1051900006D1009A013A0092029A043B9A42F5D352
:1051A000009B3361E2E70000F0B59DB002920393EB
:1051B000029B039C08930994446A0700259D002CD8
:1051C0000ED1102000F094FE021E786204D1EA2174
:1051D000C74BC84802F0F2FC446084600460C460BD
:1051E0007B6A196800290AD05A68012393404A60F3
:1051F0008B60380000F0F8FE00227B6A1A60039B87
:10520000002B20DA01232B60039B5B005B080993D2
:10521000099DB94BB84A2B40934217D1B74B249AFA
:1052200028031360029B000B184301D100F0BFFD5F
:10523000B348269B0690002B02D0B24B269A1360EF
:1052400006981DB0F0BD00232B60E1E7089B099C88
:1052500012931394129813990022002303F01AF862
:10526000041E09D00123249A1360A74B0693269BA2
:10527000002BE5D0A54BE1E71AAB01931BAB0093E4
:105280003800129A139B01F063FA6E000590760DB8
:1052900000D17CE012981399139B9D4A1B031B0BB2
:1052A0001A4311009B4B1894F61800229A4B03F0F6
:1052B00067FC9A4A9A4BFEF79BF89A4A9A4B03F07E
:1052C00017F8040030000D00FEF7FEFA974A984BDD
:1052D000FEF78EF802000B002000290003F008F80A
:1052E00004000D0003F0FCFF0022029000232000C8
:1052F000290002F0D5FF00280BD00298FEF7E4FA4F
:105300002B00220002F0C6FF43425841029B1B1AA9
:10531000029301231693029B162B0FD81298139910
:10532000DA00844B9B181A685B6802F0B9FF00280A
:1053300049D0029B013B0293002316931A9B9E1BAC
:1053400000230A933300013B0D9304D501239B1BDB
:105350000A9300230D93029B002B36DB029A0D9BD0
:10536000944663440D93002315920E93229B0124CF
:10537000092B64D8052B02DD0024043B2293229BD9
:10538000981E032864D802F061FF293836581A9B0A
:105390001B9A9E18684BF218202A0FDD40239B1A97
:1053A0009D40664B0298F318D840284303F0CEFF87
:1053B0000123634C013E0919189376E720230298D4
:1053C0009B1A9840F2E71690B8E70A9B029A9B1A3C
:1053D0000A9353420E9300231593C7E700230F93BC
:1053E000239B0C930793002B13DC01231A000C93CF
:1053F000079323920DE00123F1E70023239A0F93F3
:105400009446029B63440C9301330793002B00DC0A
:1054100001230022786A4260043215001435416885
:105420009D4219D9380000F09BFD0690002817D145
:10543000D5210200434B4900CBE60123DEE70023E0
:105440000F942293013B0C93079300221333D0E770
:1054500001230F93023BF6E7013141605200DCE784
:105460007B6A069A1A60079B0E2B00D9EBE0002C92
:1054700000D1E8E0029B002B68DD1A000F212D4BC4
:105480000A40D2009B181D685E68029B1C11022313
:105490001093029BDB050BD52B4B0C401A6A5B6A01
:1054A00012981399FDF7AEFC03230890099110930D
:1054B000254B1493002C08D1089809992A00330031
:1054C000FDF7A0FC089009915CE001231C420BD081
:1054D000109B280001331093149B31001A685B68FD
:1054E000FDF786FF05000E00149B64100833E0E70B
:1054F000AF980008C69800080000F07F0F27000052
:10550000AB980008AE980008119B0008129B000899
:105510000000F03F01FCFFFF0000F83F61436F63B4
:10552000A787D23FB3C8608B288AC63FFB799F50BC
:105530001344D33F009A0008320400001204000014
:10554000000010FE44990008D89900080223109327
:10555000029B002B16D0129813995C420F23B64A77
:105560002340DB00D3181A685B68FDF741FF012672
:10557000002308900991B14D2411002C00D094E033
:10558000002B9FD1169B002B00D19BE0089C099D0E
:10559000002220002900AA4B02F082FE002800D140
:1055A00090E0079B002B00D18CE00C9B002B46DD8C
:1055B000029B0022200029005E1EA24BFDF718FF6F
:1055C000109B08900991013310930C9B1098089C34
:1055D000099D1493FEF778F922002B00FDF708FFD0
:1055E0000022994B02F084FE10901191109A119BA9
:1055F00008920993954A119B944663441793099323
:10560000149B002B61D1002220002900904B03F055
:10561000B7FA089A179B04000D0002F055FE002807
:1056200000D0AFE28B481199844661440B00200002
:105630002900089A02F034FE002800D09FE2129B55
:10564000139C089309941B9B002B00DA72E1029AC9
:105650000E2A00DD6EE1784BD2009B185C681B6857
:105660000A930B94239B002B00DBF7E0079B002B96
:1056700000DDF3E000D082E20A980B990022744B1F
:10568000FDF7B6FE089A099B02F028FE079E35003A
:10569000002800D059E2069B069A01330893312373
:1056A0001370029B0133029354E2344207D0109BE3
:1056B000013310932A686B68FDF79AFE330064107B
:1056C00008355AE7029E079B80E7149B0F995A1EE4
:1056D000594BD2009B181A685B68002951D00020F2
:1056E0005D49FDF78FFB089A099B03F049FA069A7A
:1056F000069B94461793149B109011916344199341
:105700002900200003F0ECFD1490FEF7DDF8020004
:105710000B002000290003F033FA179B179A01337E
:105720000893149B040030331370109A119B0D00E2
:1057300002F0B6FD002875D122002B000020404960
:1057400003F01EFA109A119B02F0AAFD002800D067
:10575000D2E0199B089A934200D170E710981199F2
:105760000022384BFDF744FE364B10901191002279
:1057700020002900FDF73CFE089B04000D00179354
:10578000BEE708980999FDF733FE069A069B9446F2
:105790000893149B109011916344199329002000E1
:1057A00003F09EFD1790FEF78FF802000B0020001B
:1057B000290003F0E5F9179B089A303313701300A2
:1057C000199A013304000D00089393422CD11098CC
:1057D0001199069A149B94466344002208931E4B29
:1057E00002F086FD02000B002000290002F06CFD93
:1057F000002800D080E0109A119B0020164903F089
:10580000BFF902000B002000290002F049FD00282A
:1058100000D114E7089B1A00013A08921278302A46
:10582000F8D00893029655E00022064BFDF7E0FD04
:1058300004000D00B2E7C046009A0008D89900089D
:105840000000F03F0000244000001C400000C0FCAD
:10585000000014400000C07C0000E03F079B069E53
:10586000013B9B190C93089C099D0A9A0B9B2000F5
:105870002900FDF7C7FA03F033FD0790FEF724F87F
:105880000A9A0B9BFDF7B4FD02000B0020002900D3
:1058900003F076F93300079A013630321A700C9A09
:1058A00008969A4239D102000B0002F021FD0A9AB3
:1058B0000B9B04000D0002F007FD00281BD10A9A83
:1058C0000B9B2000290002F0E5FC002802D0079B7A
:1058D000DB0710D43800059900F086FB0023089AF6
:1058E00002981370249B01301860269B002B00D176
:1058F000A6E41A60A4E4029E089B0893013B1A7870
:10590000392A06D1069A9A42F7D1302206990136F1
:105910000A701A7801321A7084E70022AA4BFDF748
:1059200067FD0022002304000D0002F0B3FC0028F4
:105930009BD0CFE70F9D0E9E0A9C002D12D0229A7D
:10594000012A66DC189A002A5DD0A04A9B180A9AA0
:105950000121D2180A920D9A3800D3180D9300F045
:105960003FFC0500002C0EDD0D9B002B0BDD0D9A7E
:105970002300944200DD13000A9AE41AD21A0A9214
:105980000D9AD31A0D930E9B002B1FD00F9B002B4B
:1059900054D0002E11DD29003200380000F0E6FC62
:1059A000059A01000500380000F030FC05991490BC
:1059B000380000F019FB149B05930E9B9A1BB34211
:1059C00004D03800059900F0D1FC05900121380081
:1059D00000F006FC159B0600002B31DD1A000100CB
:1059E000380000F0C3FC229B0600012B2DDD0023B4
:1059F0000E93336903339B00F318586800F0A8FB3B
:105A00002023181A39E036231A9A0E9E0A9C9B1AF4
:105A10009DE7079B5E1E0E9BB34207DB9E1B079B09
:105A20000A9C002B93DAE41A002390E70E9B159A48
:105A3000F31AD3180E9615930026F0E70E9AC0E7D6
:105A400000230E93229B012B13DC00230E93089B53
:105A5000002B0ED1099B1B030BD15D4B099A1342FE
:105A600007D00A9B01330A930D9B01330D93012349
:105A70000E93159B0120002BBBD10D9B1F221818E4
:105A800003001340104246D00132D21A042A3FDDEF
:105A90001C22D31A0A9AE418D2180A920D9AD31823
:105AA0000D930A9B002B05DD1A003800059900F0C4
:105AB000B9FC05900D9B002B05DD31001A00380064
:105AC00000F0B0FC0600169B002B26D03100059894
:105AD00000F016FD002820DA029B0A22013B029307
